:020000040800F2
:1000000018130020CD010008E10D0008C10B000805
:10001000DD0D0008830300080F2100080000000028
:10002000000000000000000000000000EF190008C0
:100030005109000800000000E3010008E31A00086D
:10004000E7010008E7010008E7010008E7010008F0
:10005000E7010008E7010008E7010008E7010008E0
:10006000E7010008E7010008E7010008E7010008D0
:10007000E7010008E7010008E7010008E7010008C0
:10008000E7010008E7010008E7010008E7010008B0
:10009000E7010008E7010008E7010008E7010008A0
:1000A000E7010008E7010008E7010008E701000890
:1000B000E7010008451B0008E11C0008E7010008F3
:1000C000E7010008E7010008E7010008E701000870
:1000D000E70100085D1E0008E7010008E7010008CD
:1000E000E7010008E7010008E7010008E701000850
:1000F000E7010008E7010008E7010008E701000840
:10010000E7010008E7010008E7010008E70100082F
:10011000E7010008E7010008E7010008E70100081F
:10012000E7010008E7010008E7010008E70100080F
:1001300000F002F800F03AF80AA090E8000C8244BF
:100140008344AAF10107DA4501D100F02FF8AFF29C
:10015000090EBAE80F0013F0010F18BFFB1A43F0A5
:100160000103184780210000A0210000103A24BF9D
:1001700078C878C1FAD8520724BF30C830C144BF0C
:1001800004680C607047000000230024002500264E
:10019000103A28BF78C1FBD8520728BF30C148BFEA
:1001A0000B6070471FB51FBD10B510BD00F0A8F85B
:1001B0001146FFF7F7FF02F032F800F0C6F803B47B
:1001C000FFF7F2FF03BC00F0CDF8000009488047BC
:1001D00009480047FEE7FEE7FEE7FEE7FEE7FEE729
:1001E000FEE7FEE7FEE7FEE704480549054A064B41
:1001F00070470000E51A000831010008180D0020C2
:1002000018130020180F0020180F0020032A40F2B6
:10021000308010F0030C00F0158011F8013BBCF1A8
:10022000020F624498BF11F801CB00F8013B38BFC0
:1002300011F8013BA2F1040298BF00F801CB38BFCE
:1002400000F8013B11F0030300F02880083AC0F0E9
:10025000088051F8043B083A51F804CBA0E8081094
:10026000F5E7121D5CBF51F8043B40F8043BAFF3C7
:100270000080D20724BF11F8013B11F801CB48BF21
:1002800011F8012B24BF00F8013B00F801CB48BF57
:1002900000F8012B704770477047704710B5203A3F
:1002A000C0F00B80B1E81850203AA0E81850B1E82F
:1002B0001850A0E81850BFF4F5AF5FEA027C24BFE5
:1002C000B1E81850A0E8185044BF18C918C0BDE8DC
:1002D00010405FEA827C24BF51F8043B40F8043BA5
:1002E00008BF7047D20728BF31F8023B48BF11F85A
:1002F000012B28BF20F8023B48BF00F8012B7047B4
:10030000754600F02BF8AE4605006946534620F0CE
:100310000700854618B020B5FFF766FFBDE820400E
:100320004FF000064FF000074FF000084FF0000BB1
:1003300021F00701AC46ACE8C009ACE8C009ACE864
:10034000C009ACE8C0098D46704710B50446AFF34C
:1003500000802046BDE81040FFF731BF00487047DD
:10036000B80C002001491820ABBEFEE726000200B1
:10037000704710B5012000F0C1FD002000F0BEFD67
:1003800010BD00BFFEE700002DE9F04704463B48E2
:10039000006890F8008039480068394909880844A5
:1003A00010F8019CB8F1AA0F5FD1B9F1BB0F5CD175
:1003B000334801883148006801F006F93049088067
:1003C000002601252D4800680988084410F802AC71
:1003D00006E02A480068405D3044C6B2681C85B219
:1003E00027480088801EA842F3DC564536D12348B2
:1003F00000684778072F2FD2DFE807F00409171AA3
:100400001F22290000F014FF0620207024E00121A3
:10041000084601F08FF80320207010221748016869
:10042000891C1848FFF7F2FE16E00720207013E041
:1004300000F06CFF0B2020700EE0052020700BE018
:100440000121052001F076F80A20207004E000F078
:10045000E3FF0B20207000BF00BF05E0FF21042058
:1004600001F068F80120207005E0FF21042001F070
:1004700061F801202070BDE8F087000060000020D6
:100480003E000020800000207047000070B5214829
:100490000068C82805DA1F480068401C1D4908602C
:1004A00070BD002400201B49086017E0641C1A4935
:1004B000096831F81400B0F5004F07DDA0F50041E0
:1004C000164A12681144154A116006E0C0F5004151
:1004D000124A12681144114A116000BF0E480068A8
:1004E00000EB44000E4909688842DFD10B480068E0
:1004F000B0F5181F09D90B480B4D2ECD2EC0032087
:1005000000F03CF8012000F039F8002003490860B1
:1005100000BFC5E7AC00002090000020A80000202C
:100520009400002080000020700000202DE9F041A0
:100530000724002506E00F48405D08B12C4603E083
:10054000681CC5B20A2DF6DB00BF072C10D00A4884
:1005500050F824703E6856B1B0470648005D08B9AF
:1005600000BFFEE70348005D401E0249085500BF7A
:10057000BDE8F081AE040020140000200249095CAF
:10058000491C014A11547047AE04002000B10160BB
:100590007047000010B5002000F041FB0021C8208A
:1005A00000F009FC16480068801C154908600846E0
:1005B000006814490968884203D11348006810494B
:1005C00008600021C82000F0F6FB0446200C0C490E
:1005D000096808800A4800680C490968884204D103
:1005E0000A480068801C09490860084800680549F5
:1005F0000968884203D1044800680449086010BDB6
:100600009C00002094000020900000209800002012
:10061000704700007FB506461F4B0FCB8DE80F00DB
:10062000009858B10099029848434FF47A71B0FB92
:10063000F1F01A4908600020194908601949019829
:1006400008700098400042F21071B1FBF0F001997F
:10065000401A154908709DF80C0040F400456024CC
:1006600004E02946204600F0A6FB641C702CF8D359
:10067000402404E02946204600F09DFB641C502CD9
:10068000F8D30021202000F083FB0021212000F07E
:100690007FFB01F01BFB7FBD800000204800002095
:1006A0004C00002041000020420000202DE9F041D4
:1006B000054600F088FA00F0D7FC80461D48006827
:1006C00040F8048C0027002607E01A48006830F83C
:1006D0001600384487B2701C86B2C82EF5DB164867
:1006E0000068078013480068011FCB221348006888
:1006F00001F05AF8044611480068844205D100F020
:1007000064FA08202870BDE8F0810D480068844232
:1007100006D1CB210A48006800F09CFB084908601C
:100720000648046001F0E6F800F04FFA092028704E
:1007300000BFE8E79000002094000020580000204F
:100740005400002010B51B4908681B49FFF71EFF25
:100750001849C8681949FFF719FF16494868184928
:10076000FFF714FF134908691649FFF70FFF1149F6
:1007700048691549FFF70AFF0E4988681349FFF7D2
:1007800005FF00F03DFF00F047F800F03DFA00F0F3
:1007900052FA00F073FC4FF4964001F047FD01F06F
:1007A00069FA01F0AFFA01F0CBFC09480068094989
:1007B000086010BD14000020A508000801220008F0
:1007C000D91A00082512000853090008D9070008A3
:1007D00054000020A400002070B50026002400254D
:1007E00000F0E2F9044624B100F032F8601EC5B210
:1007F00003E000F037F8601CC5B22946022000F083
:1008000099FE034801880348006801F083FC70BD2D
:10081000520000206400002008B50121102000F0E3
:100820005DFB4FF40060ADF8000010208DF8030070
:1008300003208DF802006946044800F018F94FF4CF
:100840000061024800F0A9F908BD00000010014055
:1008500010B54FF40061024800F09DF910BD000092
:100860000010014010B54FF40061024800F095F906
:1008700010BD000000100140F0B5034600241D46E5
:100880001788002605E02888304486B2AD1C601C1D
:1008900084B28C42F7DBBE4201D10120F0BD0020C2
:1008A000FCE7000008B56846FFF76EFD25480068C4
:1008B000401C244908609DF800000C2840D2DFE865
:1008C00000F03F060D111B2A1F263F3F31381E48FE
:1008D00001881E48006801F01DFC31E00520FFF78B
:1008E0004DFE2DE0184801881848006801F012FC00
:1008F0000120FFF743FE23E00320FFF73FFE1FE048
:10090000114801881148006801F004FC18E0022039
:10091000FFF734FE14E00C4801880C48006801F031
:10092000F9FB0DE0084801880848006801F0F2FB77
:1009300006E0054801880548006801F0EBFB00BFB0
:1009400000BF08BDA000002052000020640000206D
:10095000704708B56846FFF797FD08BD30B50446F7
:1009600004254FF4302000F06FF80546042D17D110
:100970000C48006940F002000A49086108464461D9
:10098000006940F0400008614FF4302000F05CF84E
:1009900005460448006941F6FD71084001490861B7
:1009A000284630BD0020024004200B49C96801F0F0
:1009B000010109B101200EE00749C96801F00401F5
:1009C00009B1022007E00449C96801F0100109B12A
:1009D000032000E004207047002002400348006923
:1009E00040F080000149086170470000002002408B
:1009F00070B504460D460426F00200F025F80646C0
:100A0000042E11D10948006940F00100074908612E
:100A10002580F00200F018F806460448006941F607
:100A2000FE71084001490861304670BD0020024057
:100A300002480349486003484860704723016745FE
:100A400000200240AB89EFCD00B502460423FFF73A
:100A5000ABFF034603E0FFF7A7FF0346521E012B3F
:100A600001D1002AF7D102B90523184600BD2DE9AE
:100A7000F041024600250026002000230024002724
:100A800091F803C00CF00F0591F803C00CF0100CA6
:100A9000BCF1000F03D091F802C04CEA050591F8B3
:100AA00000C0BCF1000F31D0146800202BE04FF0E3
:100AB000010C0CFA00F3B1F800C00CEA03069E42E8
:100AC00020D183004FF00F0C0CFA03F7BC4305FA5A
:100AD00003FC4CEA040491F803C0BCF1280F06D1D2
:100AE0004FF0010C0CFA00FCC2F814C00AE091F8B7
:100AF00003C0BCF1480F05D14FF0010C0CFA00FC0B
:100B0000C2F810C0401C0828D1D31460B1F800C04E
:100B1000BCF1FF0F34DD546800202EE000F1080C1A
:100B20004FF0010808FA0CF3B1F800C00CEA030614
:100B30009E4221D183004FF00F0C0CFA03F7BC4307
:100B400005FA03FC4CEA040491F803C0BCF1280F39
:100B500005D100F1080C08FA0CF8C2F8148091F8DD
:100B600003C0BCF1480F07D100F1080C4FF0010899
:100B700008FA0CF8C2F81080401C0828CED3546044
:100B8000BDE8F0810246002093680B400BB10120C4
:100B900000E00020704741617047016170470AB171
:100BA000016100E04161704710B54FF48061034876
:100BB000FFF7E8FF0446204610BD0000001001408A
:100BC00000E07047FDE772B6704762B670470146B5
:100BD000CA1701EB92729210A1EB820292B96420C3
:100BE00091FBF0F200FB121050B94FF4C87091FB6A
:100BF000F0F200FB121008B9012070470020FCE75A
:100C00000120FAE70020F8E770B5002400254FF036
:100C1000D445284600F050FD0446204670BD70B50E
:100C200005464FF440542C442404204600F096F826
:100C30000646304670BD10B540F62801002000F091
:100C4000BAF840F29551012000F0B5F84021022099
:100C500000F0B1F88021032000F0ADF840F2A66169
:100C6000042000F0A8F840F2E531052000F0A3F8D8
:100C700040F6A301062000F09EF84FF4C47107204F
:100C800000F099F84FF6FF71082000F094F84FF645
:100C9000FF710A2000F08FF80F210C2000F08BF874
:100CA0004FF6FF710A2000F073F800210A2000F0CF
:100CB00082F800210A2000F06BF80021202000F0CB
:100CC0007AF80021212000F076F80F21222000F090
:100CD00072F8FF21232000F06EF88021242000F01C
:100CE0006AF80921252000F066F84FF6FF712620EA
:100CF00000F061F802212A2000F05DF84FF6FE7145
:100D00002C2000F058F800212E2000F054F8032188
:100D1000302000F050F8402405E048F2FF01204662
:100D200000F049F8641C502CF7D3602405E048F229
:100D3000FF01204600F03FF8641C702CF7D310BD73
:100D400070B5044600264FF0006040EA0446304685
:100D500000F004F80546284670BD000070B5044652
:100D60000025002210210948FFF719FF200C00F090
:100D7000A3FC05462D04A0B200F09EFC0543012211
:100D800010210248FFF70BFF284670BD0008014004
:100D90002DE9F04104460D46002600274FF0204083
:100DA00040EA044040EA05073846FFF7D7FF064609
:100DB0003046BDE8F0812DE9F04104460D4600269D
:100DC00000274FF0004040EA044040EA050738465B
:100DD000FFF7C4FF06463046BDE8F08100BFFEE7DE
:100DE0007047000070B5002100230F22C47804B3BF
:100DF000154C246804F4E064C4F5E064210AC1F1F0
:100E00000403CA40447804FA03F18478144021436F
:100E100009010E4C0678A155047804F01F05012441
:100E2000AC4005786D11AD0005F1E025C5F8004135
:100E300009E0047804F01F050124AC40044D067855
:100E4000761145F8264070BD0CED00E000E400E0AE
:100E500080E100E070B50246B2F1006F05D30E48A4
:100E6000824202D2B1F5806F01DD002070BDA2F197
:100E70000065EB0AC5F34906C6F58064A14202DCB1
:100E800002EB4100F2E75B1C802B00D10823D80263
:100E900000F10060EAE70000000004080149086270
:100EA0007047000000000E4210B501200249087092
:100EB0000020FFF763FB10BD3C00002029B1064A6B
:100EC000D2690243044BDA6104E0034AD2698243E7
:100ED000014BDA61704700000010024029B1064A58
:100EE00092690243044B9A6104E0034A9269824387
:100EF000014B9A61704700000010024001490860F0
:100F0000704700004004424230B500210022002416
:100F100000232D4D6D6805F00C0121B1042905D089
:100F2000082923D105E0294D056022E0274D056001
:100F30001FE0254D6D6805F47012234D6D6805F4B2
:100F40008034022505EB92421CB9214D55430560C2
:100F50000BE01D4D6D6805F400351DB11C4D55436A
:100F6000056002E0194D5543056002E0174D05602C
:100F700000BF00BF144D6D6805F0F0010909154D63
:100F80006B5C0568DD4045600F4D6D6805F4E06100
:100F9000090A104D6B5C4568DD4085600A4D6D683F
:100FA00005F46051C90A0B4D6B5C4568DD40C560B6
:100FB000054D6D6805F44041890B074D6B5CC568B4
:100FC000B5FBF3F5056130BD0010024000127A0058
:100FD00000093D00000000201000002010B501466F
:100FE0000022002300204A11012A02D1094C236863
:100FF00006E0022A02D1074C236A01E0054C636A2D
:1010000001F01F02012494401C400CB1012000E0BB
:10101000002010BD00100240014908607047000028
:101020008004424201490860704700003C0442428B
:101030000249096A0143014A1162704700100240E7
:101040000348008840F01000014908807047000004
:1010500004280040034800884FF6EF71084001491A
:101060000880704704280040002103480188001FC1
:10107000008841EA004070471C2800401CB500244D
:1010800001214FF0C050FFF719FF0120FFF706FFC5
:10109000FFF76FF90120FFF7BFFF00BF6120FFF7E7
:1010A0009DFF0128FAD14002FFF7C2FF0120FFF7A0
:1010B000B9FF00F09BF800F0A3F8FFF7C1FF49F675
:1010C000404000F083F800F091F837202A211123E6
:1010D0000E22CDE90010012140F2DF7000F004F88B
:1010E000FFF7B8FF00201CBD2DE9F05F06460F4654
:1010F00090469946DDE90AAB002440F2B270864280
:1011000003DB40F63300864202DD0120BDE8F09F9C
:1011100040F2B2750AE02846FFF759FD10B12048A9
:10112000044401E01F480444681C85B2B542F2DB68
:10113000781EC7B2002510E01B48405D40F2A32195
:10114000484304EBC0143046FFF741FD18B1012DB0
:1011500001D116480444681C85B2BD42ECDBA8F1FD
:10116000010040F2A321484304EBC014C9EB49102D
:10117000C0EB092004EB0014CAEB0A1004EB800456
:101180005C4401214FF0C050FFF798FE0120FFF7AB
:1011900085FE204600F00CF800F028F80020B5E7A6
:1011A0000085E2018033E101D8220008805101006E
:1011B00000B50246FFF744FF100C03490880091DE3
:1011C0000A80FFF747FF00BD1828004000B502461F
:1011D000FFF736FFC2F3034003490880091D0A8068
:1011E000FFF738FF00BD00000828004000BF03489B
:1011F000008800F020000028F9D070470428004043
:10120000074800884FF6F77108400549088000BF7D
:101210000348008800F008000028F9D0704700005B
:101220000428004008B56846FFF7F2F908BD000041
:1012300010B50022334B1A80AA22334B1B68314C65
:1012400024881A552F4A1288521C2E4B1A800022CD
:101250002D4B1B682B4C24881A552A4A1288521C85
:10126000284B1A800122284B1B68264C24881A55CB
:10127000244A1288521C234B1A800223224A1268E5
:10128000204C248813551F4A1288521C1D4B1A806B
:1012900003231D4A12681B4C24881355194A1288CF
:1012A000521C184B1A800422174B1B68154C2488BB
:1012B0001A55144A1288521C124B1A800120002120
:1012C00006E0114A1268125C0A44D1B2421CD0B244
:1012D0000C4A12889042F4DB0B4A1268094B1B88B7
:1012E000D154084A1288521C064B1A80BB22064B66
:1012F0001B68044C24881A55024A1288521C014B60
:101300001A8010BD520000206400002030B500217A
:101310003B4A1180AA223B490968394C24880A5566
:1013200037490988491C364A118003223549096822
:10133000334C24880A5532490988491C304A1180A7
:1013400031490968314A1268914219D92E4C2268F4
:10135000002112E015882B4C2468A41C24F811509D
:10136000921C274C2488A41C254D2C80284C2468D2
:10137000A24201D1274C2268491CC829EAD31BE0AC
:10138000214C2268002114E015881E4C2468A41CFE
:1013900024F81150921E1A4C2488A41C184D2C803D
:1013A0001C4C2468A41E944202D1194C2268921E3F
:1013B000491CC829E8D300BF0120002306E01149D9
:1013C0000968095C1944CBB2411C88B20C490988F0
:1013D0008842F4DB0B490968094A12888B54084992
:1013E0000988491C064A1180BB2206490968044C39
:1013F00024880A5502490988491C014A118030BDD8
:1014000052000020640000209C0000209800002072
:1014100094000020900000202DE9F0414048006831
:1014200040490968884208D0CB213E480068FFF750
:1014300011FD3D490968884205D10121072000F0CE
:1014400079F8BDE8F081002038490880AA203849A1
:101450000968364A1288885434480088401C334949
:101460000880032032490968304A128888542F487E
:101470000088401C2D4908802B48026802F5CA727A
:10148000C8210068001DFFF7F7F938B9CB212648BD
:101490000068FFF7DFFC24490860D2E722480068B3
:1014A000061F00240DE0318821480068801C20F8C8
:1014B0001410B61C1D480088801C1C490880601C44
:1014C00084B2C82CEFDB0125002706E0184800682D
:1014D000405D3844C7B2681C85B214480088854214
:1014E000F4DB134800681149098847540F48008805
:1014F000401C0E490880BB200D4909680B4A128820
:1015000088540A480088401C08490880CB210648B6
:101510000068FFF79FFC0449086000BF91E70000E6
:101520005400002058000020A40000205200002099
:101530006400002070B502460024214D2C80AA24AE
:10154000204D2D681E4E3688AC551D4C2488641CD9
:101550001B4D2C801B4C24682D886255184C248808
:10156000641C174D2C80174C24682D886155144C31
:101570002488641C124D2C800120002306E0114CAD
:101580002468245C1C44E3B2441CE0B20C4C248864
:10159000A042F4DB0B4C2468094D2D886355084CA0
:1015A0002488641C064D2C80BB25064C2468044E00
:1015B0003688A555024C2488641C014D2C8070BDD2
:1015C000520000206400002070B502460B46022144
:1015D0000220002400250AE0545C561875782E4637
:1015E00064F31F161654461CB0B28E1CF1B29E1E38
:1015F0008E42F1DCBB261654461CB0B270BD000012
:1016000000B587B0012141F20C00FFF767FC4FF4F1
:101610008060ADF8040002208DF8060010208DF8DF
:10162000070001A92148FFF722FAE020ADF80400E5
:1016300002208DF8060018208DF8070001A91C482B
:10164000FFF715FA1020ADF8040002208DF806000F
:1016500010208DF8070001A91548FFF708FA0020AF
:10166000ADF808004FF48270ADF80A004FF4006046
:10167000ADF80C000020ADF80E00ADF810004FF4EE
:101680000070ADF812000820ADF814000020ADF88D
:1016900016000720ADF8180002A9064800F04EF821
:1016A0000121044800F030F807B000BD000C0140F3
:1016B000000801400030014070B50546002405E0F7
:1016C000601CC4B2C82C01DD002070BD02210D4891
:1016D00000F026F80028F3D029460A4800F02CF83C
:1016E000002405E0601CC4B2C82C01DD0020ECE73A
:1016F0000121044800F014F80028F3D0014800F05C
:1017000018F8E2E70030014021B1028842F04002BF
:10171000028004E002884FF6BF731A4002807047CF
:101720000246002013890B400BB1012000E000208D
:1017300070470146888970478181704710B5002243
:10174000028802F441520B884C8823438C8823433F
:10175000CC8823430C8923434C8923438C8923431E
:10176000CC8923431A430280838B4FF2FF742340BA
:1017700083830B8A038210BD30B503460C461546A1
:10178000002207E0184600F008F824F812009B1C1D
:10179000501C82B2AA42F5DB30BD01460888704772
:1017A00001460868704700002DE9F74F84B0814674
:1017B000154609F5CB7AB9F1006F05D34B48814541
:1017C00002D2B5F5806F03DD484607B0BDE8F08F63
:1017D000FFF72EF9AAF1006003900398C40A03985A
:1017E000C0F34906C6F58067BD424CDC2F462A4649
:1017F0003F495046FFF7C0FF4FF000080BE03C4860
:1018000030F818004FF6FF71884200D005E008F16B
:1018100001001FFA80F8A845F1DB00BFA8452CDACB
:101820004FF0006101EBC42032463149FFF7A4FFBD
:101830004FF0006101EBC420FFF790F80296059885
:1018400001900CE001980188294A029822F81010B2
:101850000198801C01900298401C80B20290F119FE
:1018600002988142EEDCB9198AB24FF0006101EBB7
:10187000C4201F4900F0A8F819E03A4650460599DF
:1018800000F0A2F813E0641C802C00D108244FF073
:10189000006101EBC420FFF761F84FF0006000EB3E
:1018A000C42A2F463A465046059900F08DF8FFF7B6
:1018B00095F84FF0000B07E00BF1010000F0FF0B73
:1018C000BBF1020F00DD08E00AF5CA72C8210AF177
:1018D0000400FEF7D1FF0028EED000BFBBF1020FDD
:1018E00001DD484671E750466FE70000000004083C
:1018F000B804002010B52E48007810B1012854D14A
:1019000029E04FF480622B492B48FFF735FF2B4825
:1019100000682849A1F8F80728480068000CA1F8D9
:10192000FA0727480068A1F8FC0725480068000C62
:10193000A1F8FE07FFF77CF81F48FFF70FF84FF4F8
:1019400080621C491C4800F03FF8FFF747F801206F
:101950001749087029E04FF4806216491948FFF7CB
:101960000BFF164800681349A1F8F80713480068F0
:10197000000CA1F8FA0712480068A1F8FC0710480B
:101980000068000CA1F8FE07FFF752F80D48FEF7BB
:10199000E5FF4FF4806207490A4800F015F8FFF7A9
:1019A0001DF800200249087000BF00BF10BD0000F4
:1019B0005C000020B804002000480008540000200B
:1019C00058000020004000082DE9F04105460E4671
:1019D0001746002407E036F814102846FFF708F8E9
:1019E000AD1C601C84B2BC42F5DBBDE8F0817047E1
:1019F00010B500F001F810BD0CB50020019000906A
:101A00003348006840F480303149086000BF3048F6
:101A1000006800F4003000900198401C019000988C
:101A200018B90198B0F5A06FF1D12948006800F409
:101A3000003010B10120009001E0002000900098DB
:101A4000012843D12348006840F010002149086074
:101A50000846006820F0030008600846006840F06F
:101A6000020008601A484068194948600846406802
:101A700048600846406840F4806048600846406816
:101A800020F47C1048600846406840F4E810486044
:101A90000846006840F08070086000BF0C4800688D
:101AA00000F000700028F9D00948406820F00300D9
:101AB000074948600846406840F00200486000BF9F
:101AC0000348406800F00C000828F9D10CBD000064
:101AD000001002400020024008B56846FEF79AFD5B
:101AE00008BD704710B51348006840F00100114967
:101AF000086008464068104908400E49486008469A
:101B000000680E4908400B4908600846006820F448
:101B1000802008600846406820F4FE0048604FF4CA
:101B20001F008860FFF764FF4FF000600449086001
:101B300010BD0000001002400000FFF8FFFFF6FE9D
:101B400008ED00E010B54348007830B1012825D0F9
:101B500002283AD0032871D14FE03F480078401E58
:101B60003D49087008460078B8B948F2FF012C20BA
:101B7000FFF70EF94AF6AA212020FFF709F9FF2105
:101B80002120FFF705F90120FFF7DAF8012031499C
:101B9000087032480078324908704FE030480078C9
:101BA000401E2F4908700846007868B900212C2093
:101BB000FFF7EEF80120FFF7C3F80220254908706F
:101BC000264800782649087038E025480078401EED
:101BD000234908700846007870B900212020FFF7DB
:101BE000D7F800212120FFF7D3F803201949087006
:101BF0001C4800781849087020E017480078401EFB
:101C00001549087008460078B8B917480068401CA4
:101C1000154908600846006814490968884205D9D2
:101C20001348008820F0010011490880002009496C
:101C300008700C4800780849087000BF00BF0121F7
:101C40000B4800F09EF818B10121094800F08AF80D
:101C500010BD000050000020440000204100002082
:101C600043000020420000204C00002048000020DB
:101C7000000400401FB501210220FFF71FF90920D1
:101C8000ADF8040040F2CF20ADF800000020ADF820
:101C90000600ADF8020069460B4800F08DF80122FD
:101CA0001146094800F07EF81D208DF80C00002038
:101CB0008DF80D0003208DF80E0001208DF80F0027
:101CC00003A8FFF78FF81FBD0004004003480088F9
:101CD00040F0010001490880704700000004004006
:101CE00010B5FEF757FCFEF7D1FB0121044800F0C8
:101CF00048F818B10121024800F034F810BD000086
:101D0000000800401FB501210420FFF7D7F831205B
:101D1000ADF8040041F61F40ADF800000020ADF81A
:101D20000600ADF8020069460D4800F045F80122B2
:101D300011460B4800F036F81E208DF80C000020EC
:101D40008DF80D0004208DF80E0001208DF80F0095
:101D500003A8FFF747F80121014800F006F81FBD6E
:101D600000080040CA430282704721B1028842F055
:101D70000102028004E002884FF6FE731A400280DE
:101D8000704730B50246002000230024158A05EA7A
:101D90000103958905EA010413B10CB1012000E0AB
:101DA000002030BD1AB183890B43838102E083890F
:101DB0008B43838170470000002202881D4B9842AC
:101DC0000ED01D4B98420BD0B0F1804F08D01B4B6A
:101DD000984205D01A4B984202D01A4B984204D12F
:101DE0004FF68F731A404B881A43174B984207D00F
:101DF000164B984204D04FF6FF431A40CB881A4343
:101E000002808B8883850B8803850A4B98420BD010
:101E1000094B984208D00E4B984205D00D4B984282
:101E200002D00D4B984201D10B7A038601238382A5
:101E300070470000002C01400034014000040040C5
:101E400000080040000C004000100040001400405A
:101E500000400140004401400048014010B500240A
:101E60000821384800F086F810B1364800F04AF9E9
:101E700040F22551334800F08AF800285FD03148FD
:101E800000F040F9C4B2AA2C06D102202E490870F5
:101E900000202E49087010BD2B48007801284CD036
:101EA000022802D0032849D121E0072C1BDA284858
:101EB000005D28490880AA2027490968234A12782A
:101EC000885422480078401C204908702248006845
:101ED000097844541D480078401C1C4908700320B0
:101EE0001949087002E001201749087026E01A48D5
:101EF000006816490978445414480078401C134976
:101F00000870144800880978884205D1FEF7CCFF94
:101F100000200E490870BEE7BB2C0DD1AB210E4846
:101F200000680A4A1278104400F8011CFEF7BCFF52
:101F3000002006490870AEE700E000BF00BF00BF08
:101F4000A9E70000003801403C00002040000020CC
:101F5000680000203E0000206000002021B182893E
:101F600042F40052828104E082894DF6FF731A40E8
:101F70008281704702460020B1F5007F00D100BF8A
:101F800013880B400BB1012000E00020704770B5B2
:101F90000246002400230025002040F66A16B142C4
:101FA00000D100BFC1F3421501F01F03012606FA5C
:101FB00003F3012D02D19689334006E0022D02D1B0
:101FC000168A334001E0968A33400C12012606FA45
:101FD00004F41688344013B10CB1012000E0002055
:101FE00070BDF0B50346002400260025002040F611
:101FF0006A17B94200D100BF1846C1F3421401F07C
:102000001F06012707FA06F5012C01D10C3004E068
:10201000022C01D1103000E014301AB107682F43B0
:10202000076002E00768AF430760F0BD2DE9F047A5
:1020300086B005460E460024A24600BFA1460027F2
:10204000B08900B100BF2F462C8A4CF6FF700440C7
:10205000F08804432C82AC894EF6F3100440B0881B
:1020600031890843718908430443AC81AC8A4FF637
:10207000FF400440B0890443AC8201A8FEF744FF4E
:102080001F48874202D1DDF810A001E0DDF80CA066
:10209000A88900F4004040B10AEBCA0000EB0A1026
:1020A00031684900B0FBF1F807E00AEBCA0000EB29
:1020B0000A1031688900B0FBF1F86420B8FBF0F039
:1020C00004012009642101FB1089A88900F4004063
:1020D00040B1322000EBC900B0FBF1F000F0070086
:1020E000044308E0322000EB09106421B0FBF1F05A
:1020F00000F00F0004432C8106B0BDE8F08700001B
:102100000038014001468888C0F30800704700BFCE
:10211000FEE7000010B5002200BF0CE00378074C7A
:10212000238000BF054B1B1F1B8803F04003002BBF
:10213000F8D0401C521C8A42F0DB10BD043801402C
:102140002DE9F0412848FFF72BFB04462648001FE5
:10215000FFF726FB06462548FFF722FB05462348E6
:10216000001FFFF71DFB0746601C50B9681C40B9F3
:102170001F48204908602049086001201F49087055
:102180002FE0601C48B1681C38B91A4806601A482C
:10219000046000201949087023E0601C48B9681CDD
:1021A00038B11448076014480560012013490870CD
:1021B00017E0601CA8B1681C98B1206829688842A3
:1021C00007D90C4A16600C4A146000220B4B1A7097
:1021D00006E0084A1760084A15600122074B1A708A
:1021E00000BFBDE8F0810000FC470008FC4F00087C
:1021F0000040000854000020580000205C0000202F
:1022000008B56846FEF752FA9DF80000082802D08B
:10221000092802D100E000E000BF00BF08BDFEF7C2
:1022200091FA01E0FEF782F9FCE7000010B586B0F4
:102230000446012144F20400FEF750FE4FF4007002
:10224000ADF8140003208DF8160018208DF8170043
:1022500005A91C48FEF70BFC4FF48060ADF8140094
:1022600004208DF8170005A91648FEF700FC25206C
:102270008DF8000003208DF801008DF80200012088
:102280008DF803006846FEF7ADFD01940020ADF81F
:102290000800ADF80A00ADF80C00ADF810000C20F5
:1022A000ADF80E0001A90848FFF7C0FE012240F278
:1022B00025510548FFF795FE01210348FFF74EFE23
:1022C00006B010BD000801400038014000030306BD
:1022D00001040602050003051F1C1F1E1F1E1F1FF1
:1022E0001E1F1E1F0423000800000020B000000075
:1022F0006C010008B4230008B00000206812000040
:102300008801000800000000010203040102030428
:102310000607080902040608B0000020B4000020E7
:10232000B8000020BC000020C0000020C400002035
:10233000C8000020CC000020D0000020D4000020E5
:10234000010000000000000000000000000000008C
:10235000000000000000000000000000000000007D
:1023600001000000D800002018010020051F070907
:102370000B0D0F00F40100000200000064000000DB
:1023800050000000F40100000200000064000000A2
:10239000500000001C030020AC0400201C0300209F
:1023A0001C030020000000000000000000000000EE
:0423B0000000000029
:0400000508000131BD
:00000001FF
